:100000001CC0000000000000000000000000000014
:1000100000000000000000000000000000000000E0
:1000200000000000000000000C944C000C943B0009
:10003000000000000C941C00189508E00EBF0FEFA4
:100040000DBF00E00093C1000C9426000EEF0AB92A
:10005000289A00270093800008E100938900002778
:100060000093880002E200936F000DE80093810086
:1000700033277894FFCF0F930FB70F930091810030
:1000800006FF02C03FEF04C020E040E00EEF0BB9D6
:100090000F910FBF0F9118958F928FB68F9280900E
:1000A0008600809087001F931829132F182979F054
:1000B000112710938500109384001091810016FF82
:1000C00003C00AD01F7B01C01064109381001F91F0
:1000D0008F908FBE8F9018950F9333230BB919F41F
:1000E0000CE0801628F02395440F439509E703C0E0
:1000F0002395440F07E00BB90F913327213061F0AE
:10010000223089F02330F1F02430A9F125300CF4AD
:1001100008950FEB0BB9089507E0403089F009E727
:10012000413071F0089509EF403051F009E041305D
:1001300039F009E4423021F00BE6433009F008952C
:100140000BB9089503E14030D9F101EC4130C1F120
:100150000DE44230A9F101E8433091F101E244306D
:1001600079F105E8453061F103E4463049F101E4F5
:10017000473031F1089509E8403011F10DE8413080
:10018000F9F00FE04230E1F007EC4430C9F00DE047
:100190004630B1F001EE473099F001E0483081F08F
:1001A0000BE9493069F007E04A3051F001E94B3082
:1001B00039F005E24C3021F005E14D3009F00895A9
:0401C0000BB90895DA
:00000001FF
