:100000001CC0000000000000000000000000000014
:1000100000000000000000000000000000000000E0
:1000200000000000000000000C944E000C943D0005
:10003000000000000C941C00189508E00EBF0FEFA4
:100040000DBF00E00093C1000C9426000EEF0AB92A
:10005000289A00270093800000E30093890000277E
:100060000093880002E200936F000DE80093810086
:100070003327789407EF0BB9FFCF0F930FB70F9388
:100080000091810006FF02C03FEF02C007EF0BB9ED
:100090000F910FBF0F9120E040E018958F928FB61F
:1000A0008F9280908600809087001F931829132FCD
:1000B000182979F01127109385001093840010916E
:1000C000810016FF03C00AD01F7B01C0106410938B
:1000D00081001F918F908FBE8F9018950F933323BF
:1000E0000BB919F40CE0801620F02395440F4395CA
:1000F00002C02395440F0F913327213061F0223045
:1001000099F0233011F12430D9F125300CF4089501
:100110000FEB0BB9089507E04030A9F007E8413034
:1001200091F00FEB54C0089509EF403061F009E001
:10013000413049F009E4423031F00BE6433019F028
:100140000FEB45C008950BB9089503E14030F9F174
:1001500001EC4130E1F10DE44230C9F101E84330F6
:10016000B1F101E2443099F105E8453081F103E451
:10017000463069F101E4473051F10FEB28C0089592
:1001800009E8403021F10DE8413009F10FE042303B
:10019000F1F007EC4430D9F00DE04630C1F001EE4B
:1001A0004730A9F001E0483091F00BE9493079F08F
:1001B00007E04A3061F001E94B3049F005E24C308C
:1001C00031F005E14D3019F00FEB01C008950BB986
:0201D000089590
:00000001FF
